{
  "_format": "hh-sol-artifact-1",
  "contractName": "Shatokens",
  "sourceName": "contracts/Shatokens.sol",
  "abi": [
    {
      "inputs": [
        {
          "internalType": "string",
          "name": "_tokenName",
          "type": "string"
        },
        {
          "internalType": "string",
          "name": "_tokenSymbol",
          "type": "string"
        },
        {
          "internalType": "uint256",
          "name": "_cost",
          "type": "uint256"
        },
        {
          "internalType": "uint256",
          "name": "_maxMintAmountPerTx",
          "type": "uint256"
        },
        {
          "internalType": "string",
          "name": "_hiddenMetadataUri",
          "type": "string"
        }
      ],
      "stateMutability": "nonpayable",
      "type": "constructor"
    },
    {
      "inputs": [],
      "name": "ApprovalCallerNotOwnerNorApproved",
      "type": "error"
    },
    {
      "inputs": [],
      "name": "ApprovalQueryForNonexistentToken",
      "type": "error"
    },
    {
      "inputs": [],
      "name": "ApprovalToCurrentOwner",
      "type": "error"
    },
    {
      "inputs": [],
      "name": "ApproveToCaller",
      "type": "error"
    },
    {
      "inputs": [],
      "name": "BalanceQueryForZeroAddress",
      "type": "error"
    },
    {
      "inputs": [],
      "name": "MintToZeroAddress",
      "type": "error"
    },
    {
      "inputs": [],
      "name": "MintZeroQuantity",
      "type": "error"
    },
    {
      "inputs": [],
      "name": "OwnerQueryForNonexistentToken",
      "type": "error"
    },
    {
      "inputs": [],
      "name": "TransferCallerNotOwnerNorApproved",
      "type": "error"
    },
    {
      "inputs": [],
      "name": "TransferFromIncorrectOwner",
      "type": "error"
    },
    {
      "inputs": [],
      "name": "TransferToNonERC721ReceiverImplementer",
      "type": "error"
    },
    {
      "inputs": [],
      "name": "TransferToZeroAddress",
      "type": "error"
    },
    {
      "anonymous": false,
      "inputs": [
        {
          "indexed": true,
          "internalType": "address",
          "name": "owner",
          "type": "address"
        },
        {
          "indexed": true,
          "internalType": "address",
          "name": "approved",
          "type": "address"
        },
        {
          "indexed": true,
          "internalType": "uint256",
          "name": "tokenId",
          "type": "uint256"
        }
      ],
      "name": "Approval",
      "type": "event"
    },
    {
      "anonymous": false,
      "inputs": [
        {
          "indexed": true,
          "internalType": "address",
          "name": "owner",
          "type": "address"
        },
        {
          "indexed": true,
          "internalType": "address",
          "name": "operator",
          "type": "address"
        },
        {
          "indexed": false,
          "internalType": "bool",
          "name": "approved",
          "type": "bool"
        }
      ],
      "name": "ApprovalForAll",
      "type": "event"
    },
    {
      "anonymous": false,
      "inputs": [
        {
          "indexed": true,
          "internalType": "address",
          "name": "previousOwner",
          "type": "address"
        },
        {
          "indexed": true,
          "internalType": "address",
          "name": "newOwner",
          "type": "address"
        }
      ],
      "name": "OwnershipTransferred",
      "type": "event"
    },
    {
      "anonymous": false,
      "inputs": [
        {
          "indexed": true,
          "internalType": "address",
          "name": "from",
          "type": "address"
        },
        {
          "indexed": true,
          "internalType": "address",
          "name": "to",
          "type": "address"
        },
        {
          "indexed": true,
          "internalType": "uint256",
          "name": "tokenId",
          "type": "uint256"
        }
      ],
      "name": "Transfer",
      "type": "event"
    },
    {
      "inputs": [
        {
          "internalType": "address",
          "name": "to",
          "type": "address"
        },
        {
          "internalType": "uint256",
          "name": "tokenId",
          "type": "uint256"
        }
      ],
      "name": "approve",
      "outputs": [],
      "stateMutability": "nonpayable",
      "type": "function"
    },
    {
      "inputs": [
        {
          "internalType": "address",
          "name": "owner",
          "type": "address"
        }
      ],
      "name": "balanceOf",
      "outputs": [
        {
          "internalType": "uint256",
          "name": "",
          "type": "uint256"
        }
      ],
      "stateMutability": "view",
      "type": "function"
    },
    {
      "inputs": [],
      "name": "cost",
      "outputs": [
        {
          "internalType": "uint256",
          "name": "",
          "type": "uint256"
        }
      ],
      "stateMutability": "view",
      "type": "function"
    },
    {
      "inputs": [
        {
          "internalType": "uint256",
          "name": "tokenId",
          "type": "uint256"
        }
      ],
      "name": "getApproved",
      "outputs": [
        {
          "internalType": "address",
          "name": "",
          "type": "address"
        }
      ],
      "stateMutability": "view",
      "type": "function"
    },
    {
      "inputs": [],
      "name": "hiddenMetadataUri",
      "outputs": [
        {
          "internalType": "string",
          "name": "",
          "type": "string"
        }
      ],
      "stateMutability": "view",
      "type": "function"
    },
    {
      "inputs": [
        {
          "internalType": "address",
          "name": "owner",
          "type": "address"
        },
        {
          "internalType": "address",
          "name": "operator",
          "type": "address"
        }
      ],
      "name": "isApprovedForAll",
      "outputs": [
        {
          "internalType": "bool",
          "name": "",
          "type": "bool"
        }
      ],
      "stateMutability": "view",
      "type": "function"
    },
    {
      "inputs": [],
      "name": "maxMintAmountPerTx",
      "outputs": [
        {
          "internalType": "uint256",
          "name": "",
          "type": "uint256"
        }
      ],
      "stateMutability": "view",
      "type": "function"
    },
    {
      "inputs": [],
      "name": "maxPublicSupply",
      "outputs": [
        {
          "internalType": "uint256",
          "name": "",
          "type": "uint256"
        }
      ],
      "stateMutability": "view",
      "type": "function"
    },
    {
      "inputs": [],
      "name": "maxSupply",
      "outputs": [
        {
          "internalType": "uint256",
          "name": "",
          "type": "uint256"
        }
      ],
      "stateMutability": "view",
      "type": "function"
    },
    {
      "inputs": [],
      "name": "merkleRoot",
      "outputs": [
        {
          "internalType": "bytes32",
          "name": "",
          "type": "bytes32"
        }
      ],
      "stateMutability": "view",
      "type": "function"
    },
    {
      "inputs": [
        {
          "internalType": "uint256",
          "name": "_mintAmount",
          "type": "uint256"
        }
      ],
      "name": "mint",
      "outputs": [],
      "stateMutability": "payable",
      "type": "function"
    },
    {
      "inputs": [
        {
          "internalType": "uint256",
          "name": "_mintAmount",
          "type": "uint256"
        },
        {
          "internalType": "address",
          "name": "_receiver",
          "type": "address"
        }
      ],
      "name": "mintForAddress",
      "outputs": [],
      "stateMutability": "nonpayable",
      "type": "function"
    },
    {
      "inputs": [],
      "name": "name",
      "outputs": [
        {
          "internalType": "string",
          "name": "",
          "type": "string"
        }
      ],
      "stateMutability": "view",
      "type": "function"
    },
    {
      "inputs": [],
      "name": "owner",
      "outputs": [
        {
          "internalType": "address",
          "name": "",
          "type": "address"
        }
      ],
      "stateMutability": "view",
      "type": "function"
    },
    {
      "inputs": [
        {
          "internalType": "uint256",
          "name": "tokenId",
          "type": "uint256"
        }
      ],
      "name": "ownerOf",
      "outputs": [
        {
          "internalType": "address",
          "name": "",
          "type": "address"
        }
      ],
      "stateMutability": "view",
      "type": "function"
    },
    {
      "inputs": [],
      "name": "paused",
      "outputs": [
        {
          "internalType": "bool",
          "name": "",
          "type": "bool"
        }
      ],
      "stateMutability": "view",
      "type": "function"
    },
    {
      "inputs": [],
      "name": "renounceOwnership",
      "outputs": [],
      "stateMutability": "nonpayable",
      "type": "function"
    },
    {
      "inputs": [],
      "name": "revealed",
      "outputs": [
        {
          "internalType": "bool",
          "name": "",
          "type": "bool"
        }
      ],
      "stateMutability": "view",
      "type": "function"
    },
    {
      "inputs": [
        {
          "internalType": "address",
          "name": "from",
          "type": "address"
        },
        {
          "internalType": "address",
          "name": "to",
          "type": "address"
        },
        {
          "internalType": "uint256",
          "name": "tokenId",
          "type": "uint256"
        }
      ],
      "name": "safeTransferFrom",
      "outputs": [],
      "stateMutability": "nonpayable",
      "type": "function"
    },
    {
      "inputs": [
        {
          "internalType": "address",
          "name": "from",
          "type": "address"
        },
        {
          "internalType": "address",
          "name": "to",
          "type": "address"
        },
        {
          "internalType": "uint256",
          "name": "tokenId",
          "type": "uint256"
        },
        {
          "internalType": "bytes",
          "name": "_data",
          "type": "bytes"
        }
      ],
      "name": "safeTransferFrom",
      "outputs": [],
      "stateMutability": "nonpayable",
      "type": "function"
    },
    {
      "inputs": [
        {
          "internalType": "address",
          "name": "operator",
          "type": "address"
        },
        {
          "internalType": "bool",
          "name": "approved",
          "type": "bool"
        }
      ],
      "name": "setApprovalForAll",
      "outputs": [],
      "stateMutability": "nonpayable",
      "type": "function"
    },
    {
      "inputs": [
        {
          "internalType": "uint256",
          "name": "_cost",
          "type": "uint256"
        }
      ],
      "name": "setCost",
      "outputs": [],
      "stateMutability": "nonpayable",
      "type": "function"
    },
    {
      "inputs": [
        {
          "internalType": "string",
          "name": "_hiddenMetadataUri",
          "type": "string"
        }
      ],
      "name": "setHiddenMetadataUri",
      "outputs": [],
      "stateMutability": "nonpayable",
      "type": "function"
    },
    {
      "inputs": [
        {
          "internalType": "uint256",
          "name": "_maxMintAmountPerTx",
          "type": "uint256"
        }
      ],
      "name": "setMaxMintAmountPerTx",
      "outputs": [],
      "stateMutability": "nonpayable",
      "type": "function"
    },
    {
      "inputs": [
        {
          "internalType": "bytes32",
          "name": "_merkleRoot",
          "type": "bytes32"
        }
      ],
      "name": "setMerkleRoot",
      "outputs": [],
      "stateMutability": "nonpayable",
      "type": "function"
    },
    {
      "inputs": [
        {
          "internalType": "bool",
          "name": "_state",
          "type": "bool"
        }
      ],
      "name": "setPaused",
      "outputs": [],
      "stateMutability": "nonpayable",
      "type": "function"
    },
    {
      "inputs": [
        {
          "internalType": "bool",
          "name": "_state",
          "type": "bool"
        }
      ],
      "name": "setRevealed",
      "outputs": [],
      "stateMutability": "nonpayable",
      "type": "function"
    },
    {
      "inputs": [
        {
          "internalType": "string",
          "name": "_uriPrefix",
          "type": "string"
        }
      ],
      "name": "setUriPrefix",
      "outputs": [],
      "stateMutability": "nonpayable",
      "type": "function"
    },
    {
      "inputs": [
        {
          "internalType": "string",
          "name": "_uriSuffix",
          "type": "string"
        }
      ],
      "name": "setUriSuffix",
      "outputs": [],
      "stateMutability": "nonpayable",
      "type": "function"
    },
    {
      "inputs": [
        {
          "internalType": "bool",
          "name": "_state",
          "type": "bool"
        }
      ],
      "name": "setWhitelistMintEnabled",
      "outputs": [],
      "stateMutability": "nonpayable",
      "type": "function"
    },
    {
      "inputs": [
        {
          "internalType": "bytes4",
          "name": "interfaceId",
          "type": "bytes4"
        }
      ],
      "name": "supportsInterface",
      "outputs": [
        {
          "internalType": "bool",
          "name": "",
          "type": "bool"
        }
      ],
      "stateMutability": "view",
      "type": "function"
    },
    {
      "inputs": [],
      "name": "symbol",
      "outputs": [
        {
          "internalType": "string",
          "name": "",
          "type": "string"
        }
      ],
      "stateMutability": "view",
      "type": "function"
    },
    {
      "inputs": [
        {
          "internalType": "uint256",
          "name": "_tokenId",
          "type": "uint256"
        }
      ],
      "name": "tokenURI",
      "outputs": [
        {
          "internalType": "string",
          "name": "",
          "type": "string"
        }
      ],
      "stateMutability": "view",
      "type": "function"
    },
    {
      "inputs": [],
      "name": "totalSupply",
      "outputs": [
        {
          "internalType": "uint256",
          "name": "",
          "type": "uint256"
        }
      ],
      "stateMutability": "view",
      "type": "function"
    },
    {
      "inputs": [
        {
          "internalType": "address",
          "name": "from",
          "type": "address"
        },
        {
          "internalType": "address",
          "name": "to",
          "type": "address"
        },
        {
          "internalType": "uint256",
          "name": "tokenId",
          "type": "uint256"
        }
      ],
      "name": "transferFrom",
      "outputs": [],
      "stateMutability": "nonpayable",
      "type": "function"
    },
    {
      "inputs": [
        {
          "internalType": "address",
          "name": "newOwner",
          "type": "address"
        }
      ],
      "name": "transferOwnership",
      "outputs": [],
      "stateMutability": "nonpayable",
      "type": "function"
    },
    {
      "inputs": [],
      "name": "uriPrefix",
      "outputs": [
        {
          "internalType": "string",
          "name": "",
          "type": "string"
        }
      ],
      "stateMutability": "view",
      "type": "function"
    },
    {
      "inputs": [],
      "name": "uriSuffix",
      "outputs": [
        {
          "internalType": "string",
          "name": "",
          "type": "string"
        }
      ],
      "stateMutability": "view",
      "type": "function"
    },
    {
      "inputs": [
        {
          "internalType": "address",
          "name": "",
          "type": "address"
        }
      ],
      "name": "whitelistClaimed",
      "outputs": [
        {
          "internalType": "bool",
          "name": "",
          "type": "bool"
        }
      ],
      "stateMutability": "view",
      "type": "function"
    },
    {
      "inputs": [
        {
          "internalType": "uint256",
          "name": "_mintAmount",
          "type": "uint256"
        },
        {
          "internalType": "bytes32[]",
          "name": "_merkleProof",
          "type": "bytes32[]"
        }
      ],
      "name": "whitelistMint",
      "outputs": [],
      "stateMutability": "payable",
      "type": "function"
    },
    {
      "inputs": [],
      "name": "whitelistMintEnabled",
      "outputs": [
        {
          "internalType": "bool",
          "name": "",
          "type": "bool"
        }
      ],
      "stateMutability": "view",
      "type": "function"
    },
    {
      "inputs": [],
      "name": "withdraw",
      "outputs": [],
      "stateMutability": "nonpayable",
      "type": "function"
    }
  ],
  "bytecode": "0x60a06040819052600060808190526200001b91600c91620001c7565b5060408051808201909152600580825264173539b7b760d91b60209092019182526200004a91600d91620001c7565b50612710601055611f406011556013805462ffffff191660011790553480156200007357600080fd5b50604051620029943803806200299483398101604081905262000096916200033a565b845185908590620000af906002906020850190620001c7565b508051620000c5906003906020840190620001c7565b5050600160005550620000d833620000fd565b6001600955600f8390556012829055620000f2816200014f565b50505050506200041c565b600880546001600160a01b038381166001600160a01b0319831681179093556040519116919082907f8be0079c531659141344cd1fd0a4f28419497f9722a3daafe3b4186f6b6457e090600090a35050565b6008546001600160a01b03163314620001ae5760405162461bcd60e51b815260206004820181905260248201527f4f776e61626c653a2063616c6c6572206973206e6f7420746865206f776e6572604482015260640160405180910390fd5b8051620001c390600e906020840190620001c7565b5050565b828054620001d590620003df565b90600052602060002090601f016020900481019282620001f9576000855562000244565b82601f106200021457805160ff191683800117855562000244565b8280016001018555821562000244579182015b828111156200024457825182559160200191906001019062000227565b506200025292915062000256565b5090565b5b8082111562000252576000815560010162000257565b634e487b7160e01b600052604160045260246000fd5b600082601f8301126200029557600080fd5b81516001600160401b0380821115620002b257620002b26200026d565b604051601f8301601f19908116603f01168101908282118183101715620002dd57620002dd6200026d565b81604052838152602092508683858801011115620002fa57600080fd5b600091505b838210156200031e5785820183015181830184015290820190620002ff565b83821115620003305760008385830101525b9695505050505050565b600080600080600060a086880312156200035357600080fd5b85516001600160401b03808211156200036b57600080fd5b6200037989838a0162000283565b965060208801519150808211156200039057600080fd5b6200039e89838a0162000283565b955060408801519450606088015193506080880151915080821115620003c357600080fd5b50620003d28882890162000283565b9150509295509295909350565b600181811c90821680620003f457607f821691505b602082108114156200041657634e487b7160e01b600052602260045260246000fd5b50919050565b612568806200042c6000396000f3fe6080604052600436106102515760003560e01c806370a0823111610139578063b071401b116100b6578063d5abeb011161007a578063d5abeb0114610686578063db4bec441461069c578063e0a80853146106cc578063e985e9c5146106ec578063efbd73f414610735578063f2fde38b1461075557600080fd5b8063b071401b146105f3578063b767a09814610613578063b88d4fde14610633578063c87b56dd14610653578063d2cab0561461067357600080fd5b806394354fd0116100fd57806394354fd01461058057806395d89b4114610596578063a0712d68146105ab578063a22cb465146105be578063a45ba8e7146105de57600080fd5b806370a08231146104ed578063715018a61461050d5780637cb64759146105225780637ec4a659146105425780638da5cb5b1461056257600080fd5b80632eb4a7ab116101d25780635183022711610196578063518302271461044a5780635503a0e81461046a5780635c975abb1461047f57806362b99ad4146104995780636352211e146104ae5780636caede3d146104ce57600080fd5b80632eb4a7ab146103bf5780633ccfd60b146103d557806342842e0e146103ea57806344a0d68a1461040a5780634fdd43cb1461042a57600080fd5b806316ba10e01161021957806316ba10e01461032b57806316c38b3c1461034b57806318160ddd1461036b57806323b872dd1461038957806326a74d8e146103a957600080fd5b806301ffc9a71461025657806306fdde031461028b578063081812fc146102ad578063095ea7b3146102e557806313faede614610307575b600080fd5b34801561026257600080fd5b50610276610271366004611f18565b610775565b60405190151581526020015b60405180910390f35b34801561029757600080fd5b506102a06107c7565b6040516102829190611f8d565b3480156102b957600080fd5b506102cd6102c8366004611fa0565b610859565b6040516001600160a01b039091168152602001610282565b3480156102f157600080fd5b50610305610300366004611fd5565b61089d565b005b34801561031357600080fd5b5061031d600f5481565b604051908152602001610282565b34801561033757600080fd5b5061030561034636600461208b565b61092b565b34801561035757600080fd5b506103056103663660046120e4565b610975565b34801561037757600080fd5b5061031d600154600054036000190190565b34801561039557600080fd5b506103056103a43660046120ff565b6109b2565b3480156103b557600080fd5b5061031d60115481565b3480156103cb57600080fd5b5061031d600a5481565b3480156103e157600080fd5b506103056109bd565b3480156103f657600080fd5b506103056104053660046120ff565b610ab8565b34801561041657600080fd5b50610305610425366004611fa0565b610ad3565b34801561043657600080fd5b5061030561044536600461208b565b610b02565b34801561045657600080fd5b506013546102769062010000900460ff1681565b34801561047657600080fd5b506102a0610b3f565b34801561048b57600080fd5b506013546102769060ff1681565b3480156104a557600080fd5b506102a0610bcd565b3480156104ba57600080fd5b506102cd6104c9366004611fa0565b610bda565b3480156104da57600080fd5b5060135461027690610100900460ff1681565b3480156104f957600080fd5b5061031d61050836600461213b565b610bec565b34801561051957600080fd5b50610305610c3b565b34801561052e57600080fd5b5061030561053d366004611fa0565b610c71565b34801561054e57600080fd5b5061030561055d36600461208b565b610ca0565b34801561056e57600080fd5b506008546001600160a01b03166102cd565b34801561058c57600080fd5b5061031d60125481565b3480156105a257600080fd5b506102a0610cdd565b6103056105b9366004611fa0565b610cec565b3480156105ca57600080fd5b506103056105d9366004612156565b610e60565b3480156105ea57600080fd5b506102a0610ef6565b3480156105ff57600080fd5b5061030561060e366004611fa0565b610f03565b34801561061f57600080fd5b5061030561062e3660046120e4565b610f32565b34801561063f57600080fd5b5061030561064e366004612189565b610f76565b34801561065f57600080fd5b506102a061066e366004611fa0565b610fc7565b610305610681366004612205565b611137565b34801561069257600080fd5b5061031d60105481565b3480156106a857600080fd5b506102766106b736600461213b565b600b6020526000908152604090205460ff1681565b3480156106d857600080fd5b506103056106e73660046120e4565b6113f3565b3480156106f857600080fd5b50610276610707366004612284565b6001600160a01b03918216600090815260076020908152604080832093909416825291909152205460ff1690565b34801561074157600080fd5b506103056107503660046122ae565b611439565b34801561076157600080fd5b5061030561077036600461213b565b611521565b60006001600160e01b031982166380ac58cd60e01b14806107a657506001600160e01b03198216635b5e139f60e01b145b806107c157506301ffc9a760e01b6001600160e01b03198316145b92915050565b6060600280546107d6906122d1565b80601f0160208091040260200160405190810160405280929190818152602001828054610802906122d1565b801561084f5780601f106108245761010080835404028352916020019161084f565b820191906000526020600020905b81548152906001019060200180831161083257829003601f168201915b5050505050905090565b6000610864826115bc565b610881576040516333d1c03960e21b815260040160405180910390fd5b506000908152600660205260409020546001600160a01b031690565b60006108a882610bda565b9050806001600160a01b0316836001600160a01b031614156108dd5760405163250fdee360e21b815260040160405180910390fd5b336001600160a01b038216148015906108fd57506108fb8133610707565b155b1561091b576040516367d9dca160e11b815260040160405180910390fd5b6109268383836115f5565b505050565b6008546001600160a01b0316331461095e5760405162461bcd60e51b81526004016109559061230c565b60405180910390fd5b805161097190600d906020840190611e69565b5050565b6008546001600160a01b0316331461099f5760405162461bcd60e51b81526004016109559061230c565b6013805460ff1916911515919091179055565b610926838383611651565b6008546001600160a01b031633146109e75760405162461bcd60e51b81526004016109559061230c565b60026009541415610a3a5760405162461bcd60e51b815260206004820152601f60248201527f5265656e7472616e637947756172643a207265656e7472616e742063616c6c006044820152606401610955565b60026009556000610a536008546001600160a01b031690565b6001600160a01b03164760405160006040518083038185875af1925050503d8060008114610a9d576040519150601f19603f3d011682016040523d82523d6000602084013e610aa2565b606091505b5050905080610ab057600080fd5b506001600955565b61092683838360405180602001604052806000815250610f76565b6008546001600160a01b03163314610afd5760405162461bcd60e51b81526004016109559061230c565b600f55565b6008546001600160a01b03163314610b2c5760405162461bcd60e51b81526004016109559061230c565b805161097190600e906020840190611e69565b600d8054610b4c906122d1565b80601f0160208091040260200160405190810160405280929190818152602001828054610b78906122d1565b8015610bc55780601f10610b9a57610100808354040283529160200191610bc5565b820191906000526020600020905b815481529060010190602001808311610ba857829003601f168201915b505050505081565b600c8054610b4c906122d1565b6000610be582611867565b5192915050565b60006001600160a01b038216610c15576040516323d3ad8160e21b815260040160405180910390fd5b506001600160a01b031660009081526005602052604090205467ffffffffffffffff1690565b6008546001600160a01b03163314610c655760405162461bcd60e51b81526004016109559061230c565b610c6f6000611990565b565b6008546001600160a01b03163314610c9b5760405162461bcd60e51b81526004016109559061230c565b600a55565b6008546001600160a01b03163314610cca5760405162461bcd60e51b81526004016109559061230c565b805161097190600c906020840190611e69565b6060600380546107d6906122d1565b80600081118015610cff57506012548111155b610d425760405162461bcd60e51b8152602060048201526014602482015273496e76616c6964206d696e7420616d6f756e742160601b6044820152606401610955565b60115481610d57600154600054036000190190565b610d619190612357565b1115610daf5760405162461bcd60e51b815260206004820152601b60248201527f4d6178207075626c696320737570706c792065786365656465642100000000006044820152606401610955565b8180600f54610dbe919061236f565b341015610e035760405162461bcd60e51b8152602060048201526013602482015272496e73756666696369656e742066756e64732160681b6044820152606401610955565b60135460ff1615610e565760405162461bcd60e51b815260206004820152601760248201527f54686520636f6e747261637420697320706175736564210000000000000000006044820152606401610955565b61092633846119e2565b6001600160a01b038216331415610e8a5760405163b06307db60e01b815260040160405180910390fd5b3360008181526007602090815260408083206001600160a01b03871680855290835292819020805460ff191686151590811790915590519081529192917f17307eab39ab6107e8899845ad3d59bd9653f200f220920489ca2b5937696c31910160405180910390a35050565b600e8054610b4c906122d1565b6008546001600160a01b03163314610f2d5760405162461bcd60e51b81526004016109559061230c565b601255565b6008546001600160a01b03163314610f5c5760405162461bcd60e51b81526004016109559061230c565b601380549115156101000261ff0019909216919091179055565b610f81848484611651565b6001600160a01b0383163b15158015610fa35750610fa1848484846119fc565b155b15610fc1576040516368d2bf6b60e11b815260040160405180910390fd5b50505050565b6060610fd2826115bc565b6110365760405162461bcd60e51b815260206004820152602f60248201527f4552433732314d657461646174613a2055524920717565727920666f72206e6f60448201526e3732bc34b9ba32b73a103a37b5b2b760891b6064820152608401610955565b60135462010000900460ff166110d857600e8054611053906122d1565b80601f016020809104026020016040519081016040528092919081815260200182805461107f906122d1565b80156110cc5780601f106110a1576101008083540402835291602001916110cc565b820191906000526020600020905b8154815290600101906020018083116110af57829003601f168201915b50505050509050919050565b60006110e2611af4565b905060008151116111025760405180602001604052806000815250611130565b8061110c84611b03565b600d6040516020016111209392919061238e565b6040516020818303038152906040525b9392505050565b8260008111801561114a57506012548111155b61118d5760405162461bcd60e51b8152602060048201526014602482015273496e76616c6964206d696e7420616d6f756e742160601b6044820152606401610955565b601154816111a2600154600054036000190190565b6111ac9190612357565b11156111fa5760405162461bcd60e51b815260206004820152601b60248201527f4d6178207075626c696320737570706c792065786365656465642100000000006044820152606401610955565b8380600f54611209919061236f565b34101561124e5760405162461bcd60e51b8152602060048201526013602482015272496e73756666696369656e742066756e64732160681b6044820152606401610955565b601354610100900460ff166112b05760405162461bcd60e51b815260206004820152602260248201527f5468652077686974656c6973742073616c65206973206e6f7420656e61626c65604482015261642160f01b6064820152608401610955565b336000908152600b602052604090205460ff16156113105760405162461bcd60e51b815260206004820152601860248201527f4164647265737320616c726561647920636c61696d65642100000000000000006044820152606401610955565b6040516bffffffffffffffffffffffff193360601b16602082015260009060340160405160208183030381529060405280519060200120905061138a85858080602002602001604051908101604052809392919081815260200183836020028082843760009201919091525050600a549150849050611c01565b6113c75760405162461bcd60e51b815260206004820152600e60248201526d496e76616c69642070726f6f662160901b6044820152606401610955565b336000818152600b60205260409020805460ff191660011790556113eb90876119e2565b505050505050565b6008546001600160a01b0316331461141d5760405162461bcd60e51b81526004016109559061230c565b60138054911515620100000262ff000019909216919091179055565b6008546001600160a01b031633146114635760405162461bcd60e51b81526004016109559061230c565b600082116114b35760405162461bcd60e51b815260206004820152601860248201527f4d757374206d696e74206d6f7265207468616e207a65726f00000000000000006044820152606401610955565b601054826114c8600154600054036000190190565b6114d29190612357565b11156115175760405162461bcd60e51b81526020600482015260146024820152734d617820737570706c792065786365656465642160601b6044820152606401610955565b61097181836119e2565b6008546001600160a01b0316331461154b5760405162461bcd60e51b81526004016109559061230c565b6001600160a01b0381166115b05760405162461bcd60e51b815260206004820152602660248201527f4f776e61626c653a206e6577206f776e657220697320746865207a65726f206160448201526564647265737360d01b6064820152608401610955565b6115b981611990565b50565b6000816001111580156115d0575060005482105b80156107c1575050600090815260046020526040902054600160e01b900460ff161590565b60008281526006602052604080822080546001600160a01b0319166001600160a01b0387811691821790925591518593918516917f8c5be1e5ebec7d5bd14f71427d1e84f3dd0314c0f7b2291e5b200ac8c7c3b92591a4505050565b600061165c82611867565b80519091506000906001600160a01b0316336001600160a01b0316148061168a5750815161168a9033610707565b806116a557503361169a84610859565b6001600160a01b0316145b9050806116c557604051632ce44b5f60e11b815260040160405180910390fd5b846001600160a01b031682600001516001600160a01b0316146116fa5760405162a1148160e81b815260040160405180910390fd5b6001600160a01b03841661172157604051633a954ecd60e21b815260040160405180910390fd5b61173160008484600001516115f5565b6001600160a01b038581166000908152600560209081526040808320805467ffffffffffffffff1980821667ffffffffffffffff92831660001901831617909255898616808652838620805493841693831660019081018416949094179055898652600490945282852080546001600160e01b031916909417600160a01b42909216919091021790925590860180835291205490911661181d5760005481101561181d578251600082815260046020908152604090912080549186015167ffffffffffffffff16600160a01b026001600160e01b03199092166001600160a01b03909316929092171790555b5082846001600160a01b0316866001600160a01b03167fddf252ad1be2c89b69c2b068fc378daa952ba7f163c4a11628f55a4df523b3ef60405160405180910390a45b5050505050565b60408051606081018252600080825260208201819052918101919091528180600111158015611897575060005481105b1561197757600081815260046020908152604091829020825160608101845290546001600160a01b0381168252600160a01b810467ffffffffffffffff1692820192909252600160e01b90910460ff161515918101829052906119755780516001600160a01b03161561190b579392505050565b5060001901600081815260046020908152604091829020825160608101845290546001600160a01b038116808352600160a01b820467ffffffffffffffff1693830193909352600160e01b900460ff1615159281019290925215611970579392505050565b61190b565b505b604051636f96cda160e11b815260040160405180910390fd5b600880546001600160a01b038381166001600160a01b0319831681179093556040519116919082907f8be0079c531659141344cd1fd0a4f28419497f9722a3daafe3b4186f6b6457e090600090a35050565b610971828260405180602001604052806000815250611c17565b604051630a85bd0160e11b81526000906001600160a01b0385169063150b7a0290611a31903390899088908890600401612452565b602060405180830381600087803b158015611a4b57600080fd5b505af1925050508015611a7b575060408051601f3d908101601f19168201909252611a789181019061248f565b60015b611ad6573d808015611aa9576040519150601f19603f3d011682016040523d82523d6000602084013e611aae565b606091505b508051611ace576040516368d2bf6b60e11b815260040160405180910390fd5b805181602001fd5b6001600160e01b031916630a85bd0160e11b1490505b949350505050565b6060600c80546107d6906122d1565b606081611b275750506040805180820190915260018152600360fc1b602082015290565b8160005b8115611b515780611b3b816124ac565b9150611b4a9050600a836124dd565b9150611b2b565b60008167ffffffffffffffff811115611b6c57611b6c611fff565b6040519080825280601f01601f191660200182016040528015611b96576020820181803683370190505b5090505b8415611aec57611bab6001836124f1565b9150611bb8600a86612508565b611bc3906030612357565b60f81b818381518110611bd857611bd861251c565b60200101906001600160f81b031916908160001a905350611bfa600a866124dd565b9450611b9a565b600082611c0e8584611c24565b14949350505050565b6109268383836001611c98565b600081815b8451811015611c90576000858281518110611c4657611c4661251c565b60200260200101519050808311611c6c5760008381526020829052604090209250611c7d565b600081815260208490526040902092505b5080611c88816124ac565b915050611c29565b509392505050565b6000546001600160a01b038516611cc157604051622e076360e81b815260040160405180910390fd5b83611cdf5760405163b562e8dd60e01b815260040160405180910390fd5b6001600160a01b038516600081815260056020908152604080832080546fffffffffffffffffffffffffffffffff19811667ffffffffffffffff8083168c0181169182176801000000000000000067ffffffffffffffff1990941690921783900481168c01811690920217909155858452600490925290912080546001600160e01b031916909217600160a01b429092169190910217905580808501838015611d9157506001600160a01b0387163b15155b15611e1a575b60405182906001600160a01b038916906000907fddf252ad1be2c89b69c2b068fc378daa952ba7f163c4a11628f55a4df523b3ef908290a4611de260008884806001019550886119fc565b611dff576040516368d2bf6b60e11b815260040160405180910390fd5b80821415611d97578260005414611e1557600080fd5b611e60565b5b6040516001830192906001600160a01b038916906000907fddf252ad1be2c89b69c2b068fc378daa952ba7f163c4a11628f55a4df523b3ef908290a480821415611e1b575b50600055611860565b828054611e75906122d1565b90600052602060002090601f016020900481019282611e975760008555611edd565b82601f10611eb057805160ff1916838001178555611edd565b82800160010185558215611edd579182015b82811115611edd578251825591602001919060010190611ec2565b50611ee9929150611eed565b5090565b5b80821115611ee95760008155600101611eee565b6001600160e01b0319811681146115b957600080fd5b600060208284031215611f2a57600080fd5b813561113081611f02565b60005b83811015611f50578181015183820152602001611f38565b83811115610fc15750506000910152565b60008151808452611f79816020860160208601611f35565b601f01601f19169290920160200192915050565b6020815260006111306020830184611f61565b600060208284031215611fb257600080fd5b5035919050565b80356001600160a01b0381168114611fd057600080fd5b919050565b60008060408385031215611fe857600080fd5b611ff183611fb9565b946020939093013593505050565b634e487b7160e01b600052604160045260246000fd5b600067ffffffffffffffff8084111561203057612030611fff565b604051601f8501601f19908116603f0116810190828211818310171561205857612058611fff565b8160405280935085815286868601111561207157600080fd5b858560208301376000602087830101525050509392505050565b60006020828403121561209d57600080fd5b813567ffffffffffffffff8111156120b457600080fd5b8201601f810184136120c557600080fd5b611aec84823560208401612015565b80358015158114611fd057600080fd5b6000602082840312156120f657600080fd5b611130826120d4565b60008060006060848603121561211457600080fd5b61211d84611fb9565b925061212b60208501611fb9565b9150604084013590509250925092565b60006020828403121561214d57600080fd5b61113082611fb9565b6000806040838503121561216957600080fd5b61217283611fb9565b9150612180602084016120d4565b90509250929050565b6000806000806080858703121561219f57600080fd5b6121a885611fb9565b93506121b660208601611fb9565b925060408501359150606085013567ffffffffffffffff8111156121d957600080fd5b8501601f810187136121ea57600080fd5b6121f987823560208401612015565b91505092959194509250565b60008060006040848603121561221a57600080fd5b83359250602084013567ffffffffffffffff8082111561223957600080fd5b818601915086601f83011261224d57600080fd5b81358181111561225c57600080fd5b8760208260051b850101111561227157600080fd5b6020830194508093505050509250925092565b6000806040838503121561229757600080fd5b6122a083611fb9565b915061218060208401611fb9565b600080604083850312156122c157600080fd5b8235915061218060208401611fb9565b600181811c908216806122e557607f821691505b6020821081141561230657634e487b7160e01b600052602260045260246000fd5b50919050565b6020808252818101527f4f776e61626c653a2063616c6c6572206973206e6f7420746865206f776e6572604082015260600190565b634e487b7160e01b600052601160045260246000fd5b6000821982111561236a5761236a612341565b500190565b600081600019048311821515161561238957612389612341565b500290565b6000845160206123a18285838a01611f35565b8551918401916123b48184848a01611f35565b8554920191600090600181811c90808316806123d157607f831692505b8583108114156123ef57634e487b7160e01b85526022600452602485fd5b808015612403576001811461241457612441565b60ff19851688528388019550612441565b60008b81526020902060005b858110156124395781548a820152908401908801612420565b505083880195505b50939b9a5050505050505050505050565b6001600160a01b038581168252841660208201526040810183905260806060820181905260009061248590830184611f61565b9695505050505050565b6000602082840312156124a157600080fd5b815161113081611f02565b60006000198214156124c0576124c0612341565b5060010190565b634e487b7160e01b600052601260045260246000fd5b6000826124ec576124ec6124c7565b500490565b60008282101561250357612503612341565b500390565b600082612517576125176124c7565b500690565b634e487b7160e01b600052603260045260246000fdfea26469706673582212200dd43bf7931791f4c57de518deb49a69a6227cf4197ca3411fd0194c0e242b5d64736f6c63430008090033",
  "linkReferences": {},
  "deployedLinkReferences": {}
}